{
  "contractName": "KrakenPriceTicker",
  "abi": [
    {
      "constant": true,
      "inputs": [],
      "name": "ETHXBT",
      "outputs": [
        {
          "name": "",
          "type": "string"
        }
      ],
      "payable": false,
      "stateMutability": "view",
      "type": "function"
    },
    {
      "inputs": [],
      "payable": false,
      "stateMutability": "nonpayable",
      "type": "constructor"
    },
    {
      "anonymous": false,
      "inputs": [
        {
          "indexed": false,
          "name": "nextStep",
          "type": "string"
        }
      ],
      "name": "LogConstructorInitiated",
      "type": "event"
    },
    {
      "anonymous": false,
      "inputs": [
        {
          "indexed": false,
          "name": "description",
          "type": "string"
        }
      ],
      "name": "newOraclizeQuery",
      "type": "event"
    },
    {
      "anonymous": false,
      "inputs": [
        {
          "indexed": false,
          "name": "price",
          "type": "string"
        }
      ],
      "name": "newKrakenPriceTicker",
      "type": "event"
    },
    {
      "constant": false,
      "inputs": [
        {
          "name": "myid",
          "type": "bytes32"
        },
        {
          "name": "result",
          "type": "string"
        }
      ],
      "name": "__callback",
      "outputs": [],
      "payable": false,
      "stateMutability": "nonpayable",
      "type": "function"
    },
    {
      "constant": false,
      "inputs": [
        {
          "name": "myid",
          "type": "bytes32"
        },
        {
          "name": "result",
          "type": "string"
        },
        {
          "name": "proof",
          "type": "bytes"
        }
      ],
      "name": "__callback",
      "outputs": [],
      "payable": false,
      "stateMutability": "nonpayable",
      "type": "function"
    },
    {
      "constant": false,
      "inputs": [],
      "name": "update",
      "outputs": [],
      "payable": true,
      "stateMutability": "payable",
      "type": "function"
    }
  ],
  "bytecode": "0x60806040523480156200001157600080fd5b50620000467f1100000000000000000000000000000000000000000000000000000000000000640100000000620000f8810204565b6040805160208082526046908201527f436f6e7374727563746f722077617320696e697469617465642e2043616c6c20818301527f2775706461746528292720746f2073656e6420746865204f7261636c697a652060608201527f51756572792e0000000000000000000000000000000000000000000000000000608082015290517f11a3fca63f87bd67d7f9f72b744acc8be2193705e7a734ac3a773d35d259e87b9181900360a00190a1620007e0565b600054600160a060020a031615806200012e57506000546200012c90600160a060020a031664010000000062000359810204565b155b156200014b576200014960006401000000006200035d810204565b505b6000809054906101000a9004600160a060020a0316600160a060020a03166338cc48316040518163ffffffff167c0100000000000000000000000000000000000000000000000000000000028152600401602060405180830381600087803b158015620001b757600080fd5b505af1158015620001cc573d6000803e3d6000fd5b505050506040513d6020811015620001e357600080fd5b5051600154600160a060020a03908116911614620002b5576000809054906101000a9004600160a060020a0316600160a060020a03166338cc48316040518163ffffffff167c0100000000000000000000000000000000000000000000000000000000028152600401602060405180830381600087803b1580156200026757600080fd5b505af11580156200027c573d6000803e3d6000fd5b505050506040513d60208110156200029357600080fd5b505160018054600160a060020a031916600160a060020a039092169190911790555b600154604080517f688dcfd70000000000000000000000000000000000000000000000000000000081527fff00000000000000000000000000000000000000000000000000000000000000841660048201529051600160a060020a039092169163688dcfd79160248082019260009290919082900301818387803b1580156200033d57600080fd5b505af115801562000352573d6000803e3d6000fd5b5050505050565b3b90565b60006200037264010000000062000378810204565b92915050565b600080620003a3731d3b2638a7cc9f2cb3d298a3da7a90b67e5506ed64010000000062000359810204565b1115620004215760008054600160a060020a031916731d3b2638a7cc9f2cb3d298a3da7a90b67e5506ed17905560408051808201909152600b81527f6574685f6d61696e6e65740000000000000000000000000000000000000000006020820152620004189064010000000062000725810204565b50600162000722565b60006200044b73c03a2615d5efaf5f49f60b7bb6583eaec212fdf164010000000062000359810204565b1115620004c05760008054600160a060020a03191673c03a2615d5efaf5f49f60b7bb6583eaec212fdf117905560408051808201909152600c81527f6574685f726f707374656e3300000000000000000000000000000000000000006020820152620004189064010000000062000725810204565b6000620004ea73b7a07bcf2ba2f2703b24c0691b5278999c59ac7e64010000000062000359810204565b11156200055f5760008054600160a060020a03191673b7a07bcf2ba2f2703b24c0691b5278999c59ac7e17905560408051808201909152600981527f6574685f6b6f76616e00000000000000000000000000000000000000000000006020820152620004189064010000000062000725810204565b60006200058973146500cfd35b22e4a392fe0adc06de1a1368ed4864010000000062000359810204565b1115620005fe5760008054600160a060020a03191673146500cfd35b22e4a392fe0adc06de1a1368ed4817905560408051808201909152600b81527f6574685f72696e6b6562790000000000000000000000000000000000000000006020820152620004189064010000000062000725810204565b600062000628736f485c8bf6fc43ea212e93bbf8ce046c7f1cb47564010000000062000359810204565b11156200065e575060008054600160a060020a031916736f485c8bf6fc43ea212e93bbf8ce046c7f1cb475179055600162000722565b6000620006887320e12a1f859b3feae5fb2a0a32c18f5a65555bbf64010000000062000359810204565b1115620006be575060008054600160a060020a0319167320e12a1f859b3feae5fb2a0a32c18f5a65555bbf179055600162000722565b6000620006e87351efaf4c8b3c9afbd5ab9f4bbc82784ab6ef8faa64010000000062000359810204565b11156200071e575060008054600160a060020a0319167351efaf4c8b3c9afbd5ab9f4bbc82784ab6ef8faa179055600162000722565b5060005b90565b80516200073a9060029060208401906200073e565b5050565b828054600181600116156101000203166002900490600052602060002090601f016020900481019282601f106200078157805160ff1916838001178555620007b1565b82800160010185558215620007b1579182015b82811115620007b157825182559160200191906001019062000794565b50620007bf929150620007c3565b5090565b6200072291905b80821115620007bf5760008155600101620007ca565b61122480620007f06000396000f3006080604052600436106100485763ffffffff60e060020a60003504166327dc297e811461004d57806338bbfa50146100ad578063a2e6204514610149578063b776447514610151575b600080fd5b34801561005957600080fd5b5060408051602060046024803582810135601f81018590048502860185019096528585526100ab9583359536956044949193909101919081908401838280828437509497506101db9650505050505050565b005b3480156100b957600080fd5b5060408051602060046024803582810135601f81018590048502860185019096528585526100ab95833595369560449491939091019190819084018382808284375050604080516020601f89358b018035918201839004830284018301909452808352979a9998810197919650918201945092508291508401838280828437509497506101fb9650505050505050565b6100ab6102dd565b34801561015d57600080fd5b50610166610527565b6040805160208082528351818301528351919283929083019185019080838360005b838110156101a0578181015183820152602001610188565b50505050905090810190601f1680156101cd5780820380516001836020036101000a031916815260200191505b509250505060405180910390f35b6040805160008152602081019091526101f790839083906101fb565b5050565b6102036105b5565b600160a060020a0316331461021757600080fd5b815161022a906005906020850190611160565b5060408051602080825260058054600260001961010060018416150201909116049183018290527ff5d9356ebb584d3c57a6d507d145b1e4a28ad9c1f5320d7f58edfed2a5aa6ba6939092918291820190849080156102ca5780601f1061029f576101008083540402835291602001916102ca565b820191906000526020600020905b8154815290600101906020018083116102ad57829003601f168201915b50509250505060405180910390a1505050565b60408051808201909152600381527f55524c0000000000000000000000000000000000000000000000000000000000602082015230319061032190620249f06107a7565b11156103d857604080516020808252604b908201527f4f7261636c697a6520717565727920776173204e4f542073656e742c20706c65818301527f6173652061646420736f6d652045544820746f20636f76657220666f7220746860608201527f6520717565727920666565000000000000000000000000000000000000000000608082015290517f46cb989ef9cef13e930e3b7f286225a086e716a90d63e0b7da85d310a9db0c9a9181900360a00190a1610525565b6040805160208082526035908201527f4f7261636c697a65207175657279207761732073656e742c207374616e64696e818301527f6720627920666f722074686520616e737765722e2e0000000000000000000000606082015290517f46cb989ef9cef13e930e3b7f286225a086e716a90d63e0b7da85d310a9db0c9a9181900360800190a16105236040805190810160405280600381526020017f55524c0000000000000000000000000000000000000000000000000000000000815250608060405190810160405280604c81526020017f6a736f6e2868747470733a2f2f6170692e6b72616b656e2e636f6d2f302f707581526020017f626c69632f5469636b65723f706169723d455448584254292e726573756c742e81526020017f58455448585842542e632e300000000000000000000000000000000000000000815250620249f0610a14565b505b565b6005805460408051602060026001851615610100026000190190941693909304601f810184900484028201840190925281815292918301828280156105ad5780601f10610582576101008083540402835291602001916105ad565b820191906000526020600020905b81548152906001019060200180831161059057829003601f168201915b505050505081565b60008054600160a060020a031615806105e057506000546105de90600160a060020a0316610e15565b155b156105f1576105ef6000610e19565b505b6000809054906101000a9004600160a060020a0316600160a060020a03166338cc48316040518163ffffffff1660e060020a028152600401602060405180830381600087803b15801561064357600080fd5b505af1158015610657573d6000803e3d6000fd5b505050506040513d602081101561066d57600080fd5b5051600154600160a060020a03908116911614610722576000809054906101000a9004600160a060020a0316600160a060020a03166338cc48316040518163ffffffff1660e060020a028152600401602060405180830381600087803b1580156106d657600080fd5b505af11580156106ea573d6000803e3d6000fd5b505050506040513d602081101561070057600080fd5b505160018054600160a060020a031916600160a060020a039092169190911790555b600160009054906101000a9004600160a060020a0316600160a060020a031663c281d19e6040518163ffffffff1660e060020a028152600401602060405180830381600087803b15801561077557600080fd5b505af1158015610789573d6000803e3d6000fd5b505050506040513d602081101561079f57600080fd5b505190505b90565b60008054600160a060020a031615806107d257506000546107d090600160a060020a0316610e15565b155b156107e3576107e16000610e19565b505b6000809054906101000a9004600160a060020a0316600160a060020a03166338cc48316040518163ffffffff1660e060020a028152600401602060405180830381600087803b15801561083557600080fd5b505af1158015610849573d6000803e3d6000fd5b505050506040513d602081101561085f57600080fd5b5051600154600160a060020a03908116911614610914576000809054906101000a9004600160a060020a0316600160a060020a03166338cc48316040518163ffffffff1660e060020a028152600401602060405180830381600087803b1580156108c857600080fd5b505af11580156108dc573d6000803e3d6000fd5b505050506040513d60208110156108f257600080fd5b505160018054600160a060020a031916600160a060020a039092169190911790555b600154604080517f2ef3accc0000000000000000000000000000000000000000000000000000000081526024810185905260048101918252855160448201528551600160a060020a0390931692632ef3accc9287928792829160640190602086019080838360005b8381101561099457818101518382015260200161097c565b50505050905090810190601f1680156109c15780820380516001836020036101000a031916815260200191505b509350505050602060405180830381600087803b1580156109e157600080fd5b505af11580156109f5573d6000803e3d6000fd5b505050506040513d6020811015610a0b57600080fd5b50519392505050565b600080548190600160a060020a03161580610a415750600054610a3f90600160a060020a0316610e15565b155b15610a5257610a506000610e19565b505b6000809054906101000a9004600160a060020a0316600160a060020a03166338cc48316040518163ffffffff1660e060020a028152600401602060405180830381600087803b158015610aa457600080fd5b505af1158015610ab8573d6000803e3d6000fd5b505050506040513d6020811015610ace57600080fd5b5051600154600160a060020a03908116911614610b83576000809054906101000a9004600160a060020a0316600160a060020a03166338cc48316040518163ffffffff1660e060020a028152600401602060405180830381600087803b158015610b3757600080fd5b505af1158015610b4b573d6000803e3d6000fd5b505050506040513d6020811015610b6157600080fd5b505160018054600160a060020a031916600160a060020a039092169190911790555b600154604080517f2ef3accc0000000000000000000000000000000000000000000000000000000081526024810186905260048101918252875160448201528751600160a060020a0390931692632ef3accc9289928892829160640190602086019080838360005b83811015610c03578181015183820152602001610beb565b50505050905090810190601f168015610c305780820380516001836020036101000a031916815260200191505b509350505050602060405180830381600087803b158015610c5057600080fd5b505af1158015610c64573d6000803e3d6000fd5b505050506040513d6020811015610c7a57600080fd5b50519050670de0b6b3a76400003a840201811115610c9b5760009150610e0d565b6001546040517fc51be90f00000000000000000000000000000000000000000000000000000000815260006004820181815260648301879052608060248401908152895160848501528951600160a060020a039095169463c51be90f948794938c938c938c93604481019160a49091019060208801908083838c5b83811015610d2e578181015183820152602001610d16565b50505050905090810190601f168015610d5b5780820380516001836020036101000a031916815260200191505b50838103825285518152855160209182019187019080838360005b83811015610d8e578181015183820152602001610d76565b50505050905090810190601f168015610dbb5780820380516001836020036101000a031916815260200191505b5096505050505050506020604051808303818588803b158015610ddd57600080fd5b505af1158015610df1573d6000803e3d6000fd5b50505050506040513d6020811015610e0857600080fd5b505191505b509392505050565b3b90565b6000610e23610e29565b92915050565b600080610e49731d3b2638a7cc9f2cb3d298a3da7a90b67e5506ed610e15565b1115610eba5760008054600160a060020a031916731d3b2638a7cc9f2cb3d298a3da7a90b67e5506ed17905560408051808201909152600b81527f6574685f6d61696e6e65740000000000000000000000000000000000000000006020820152610eb290611151565b5060016107a4565b6000610ed973c03a2615d5efaf5f49f60b7bb6583eaec212fdf1610e15565b1115610f425760008054600160a060020a03191673c03a2615d5efaf5f49f60b7bb6583eaec212fdf117905560408051808201909152600c81527f6574685f726f707374656e3300000000000000000000000000000000000000006020820152610eb290611151565b6000610f6173b7a07bcf2ba2f2703b24c0691b5278999c59ac7e610e15565b1115610fca5760008054600160a060020a03191673b7a07bcf2ba2f2703b24c0691b5278999c59ac7e17905560408051808201909152600981527f6574685f6b6f76616e00000000000000000000000000000000000000000000006020820152610eb290611151565b6000610fe973146500cfd35b22e4a392fe0adc06de1a1368ed48610e15565b11156110525760008054600160a060020a03191673146500cfd35b22e4a392fe0adc06de1a1368ed4817905560408051808201909152600b81527f6574685f72696e6b6562790000000000000000000000000000000000000000006020820152610eb290611151565b6000611071736f485c8bf6fc43ea212e93bbf8ce046c7f1cb475610e15565b11156110a5575060008054600160a060020a031916736f485c8bf6fc43ea212e93bbf8ce046c7f1cb47517905560016107a4565b60006110c47320e12a1f859b3feae5fb2a0a32c18f5a65555bbf610e15565b11156110f8575060008054600160a060020a0319167320e12a1f859b3feae5fb2a0a32c18f5a65555bbf17905560016107a4565b60006111177351efaf4c8b3c9afbd5ab9f4bbc82784ab6ef8faa610e15565b111561114b575060008054600160a060020a0319167351efaf4c8b3c9afbd5ab9f4bbc82784ab6ef8faa17905560016107a4565b50600090565b80516101f79060029060208401905b828054600181600116156101000203166002900490600052602060002090601f016020900481019282601f106111a157805160ff19168380011785556111ce565b828001600101855582156111ce579182015b828111156111ce5782518255916020019190600101906111b3565b506111da9291506111de565b5090565b6107a491905b808211156111da57600081556001016111e45600a165627a7a72305820b4101a490bea6643c5d505478e1f097abd04bf810d09e896d6766e040d4fb92e0029",
  "source": "pragma solidity ^0.4.20;\n\nimport \"./oraclizeAPI_0.5.sol\";\n\ncontract KrakenPriceTicker is usingOraclize {\n\n    string public ETHXBT;\n    uint constant CUSTOM_GASLIMIT = 150000;\n\n    event LogConstructorInitiated(string nextStep);\n    event newOraclizeQuery(string description);\n    event newKrakenPriceTicker(string price);\n\n\n    function KrakenPriceTicker() {\n        oraclize_setProof(proofType_TLSNotary | proofStorage_IPFS);\n        LogConstructorInitiated(\"Constructor was initiated. Call 'update()' to send the Oraclize Query.\");\n    }\n\n    function __callback(bytes32 myid, string result, bytes proof) {\n        if (msg.sender != oraclize_cbAddress()) revert();\n        ETHXBT = result;\n        newKrakenPriceTicker(ETHXBT);\n    }\n\n    function update() payable {\n        if (oraclize_getPrice(\"URL\", CUSTOM_GASLIMIT) > this.balance) {\n            newOraclizeQuery(\"Oraclize query was NOT sent, please add some ETH to cover for the query fee\");\n        } else {\n            newOraclizeQuery(\"Oraclize query was sent, standing by for the answer..\");\n            oraclize_query(\"URL\", \"json(https://api.kraken.com/0/public/Ticker?pair=ETHXBT).result.XETHXXBT.c.0\", CUSTOM_GASLIMIT);\n        }\n    }\n}\n",
  "sourcePath": "/home/blackjak/Projects/ETHBuenosAires/contracts/KrakenPriceTicker.sol",
  "compiler": {
    "name": "solc",
    "version": "0.4.24+commit.e67f0147.Emscripten.clang"
  },
  "schemaVersion": "2.0.0",
  "updatedAt": "2018-05-25T17:14:15.812Z"
}